:100000000C94EB020C9413030C9413030C94130341
:100010000C9413030C9413030C9413030C94130308
:100020000C9413030C9413030C9413030C941303F8
:100030000C9413030C9411080C9413030C941303E5
:100040000C941E0E0C9413030C94990B0C94730BCC
:100050000C9413030C9413030C9413030C941303C8
:100060000C9413030C9413038E0A8E0A8E0A7F0AD3
:100070007F0A7F0A820A820A820A850A850A880A1A
:10008000880A880A00000008000201000003040733
:10009000000000000000000000000000003E5B4F78
:1000A0005B3E3E6B4F6B3E1C3E7C3E1C183C7E3CD8
:1000B000181C577D571C1C5E7F5E1C00183C1800E6
:1000C000FFE7C3E7FF0018241800FFE7DBE7FF3076
:1000D000483A060E2629792926407F050507407FE4
:1000E00005253F5A3CE73C5A7F3E1C1C08081C1C57
:1000F0003E7F14227F22145F5F005F5F06097F014D
:100100007F006689956A606060606094A2FFA29437
:1001100008047E040810207E201008082A1C080805
:100120001C2A08081E101010100C1E0C1E0C303853
:100130003E3830060E3E0E06000000000000005F54
:1001400000000007000700147F147F14242A7F2A70
:100150001223130864623649562050000807030032
:10016000001C2241000041221C002A1C7F1C2A087E
:10017000083E0808008070300008080808080000E1
:1001800060600020100804023E5149453E00427F55
:10019000400072494949462141494D331814127FA4
:1001A0001027454545393C4A494931412111090744
:1001B0003649494936464949291E000014000000C5
:1001C0004034000000081422411414141414004197
:1001D00022140802015909063E415D594E7C121154
:1001E000127C7F494949363E414141227F4141418C
:1001F0003E7F494949417F090909013E4141517307
:100200007F0808087F00417F41002040413F017F77
:10021000081422417F404040407F021C027F7F043F
:1002200008107F3E4141413E7F090909063E415188
:10023000215E7F09192946264949493203017F0178
:10024000033F4040403F1F2040201F3F4038403F79
:10025000631408146303047804036159494D43008F
:100260007F4141410204081020004141417F0402C6
:10027000010204404040404000030708002054545D
:1002800078407F284444383844444428384444283B
:100290007F385454541800087E090218A4A49C788E
:1002A0007F0804047800447D40002040403D007FEA
:1002B0001028440000417F40007C047804787C08CA
:1002C0000404783844444438FC182424181824249E
:1002D00018FC7C08040408485454542404043F4483
:1002E000243C4040207C1C2040201C3C4030403CB2
:1002F00044281028444C9090907C4464544C440012
:100300000836410000007700000041360800020175
:100310000204023C2623263C1EA1A161123A404061
:10032000207A3854545559215555794122545478DE
:1003300042215554784020545579400C1E52721277
:100340003955555559395454545939555454580000
:1003500000457C410002457D420001457C407D1204
:1003600011127DF0282528F07C5455450020545466
:100370007C547C0A097F4932494949323A44444411
:100380003A324A4848303A4141217A3A424020784C
:10039000009DA0A07D3D4242423D3D4040403D3C4D
:1003A00024FF2424487E4943662B2FFC2F2BFF0972
:1003B00029F620C0887E0903205454794100004466
:1003C0007D413048484A32384040227A007A0A0A51
:1003D000727D0D19317D2629292F282629292926C4
:1003E00030484D4020380808080808080808382F09
:1003F00010C8ACBA2F102834FA00007B0000081493
:100400002A142222142A14085500550055AA55AA68
:1004100055AAFF55FF55FF000000FF00101010FF08
:1004200000141414FF001010FF00FF1010F010F063
:10043000141414FC001414F700FF0000FF00FF1454
:1004400014F404FC141417101F10101F101F1414A0
:10045000141F00101010F0000000001F10101010EA
:100460001F10101010F010000000FF1010101010DE
:1004700010101010FF10000000FF140000FF00FF1C
:1004800000001F10170000FC04F4141417101714B8
:1004900014F404F40000FF00F714141414141414DA
:1004A000F700F7141414171410101F101F1414144D
:1004B000F4141010F010F000001F101F0000001FB7
:1004C00014000000FC140000F010F01010FF10FFEA
:1004D000141414FF141010101F00000000F010FF7F
:1004E000FFFFFFFFF0F0F0F0F0FFFFFF0000000063
:1004F00000FFFF0F0F0F0F0F3844443844FC4A4AE7
:100500004A347E02020606027E027E02635549419B
:10051000633844443C04407E201E2006027E0202D2
:1005200099A5E7A5991C2A492A1C4C7201724C30E6
:100530004A4D4D303048784830BC625A463D3E49BD
:100540004949007E0101017E2A2A2A2A2A44445F61
:10055000444440514A444040444A51400000FF0155
:1005600003E080FF000008086B6B08361236243663
:10057000060F090F060000181800000010100030C8
:1005800040FF0101001F01011E00191D1712003C50
:100590003C3C3C000000000000000000240027005C
:1005A0002A0000000000250028002B000404040499
:1005B000040404040202020202020303030303030D
:1005C00001020408102040800102040810200102EA
:1005D00004081020431111241FBECFEFD8E0DEBF66
:1005E000CDBF22E0A4E4B1E001C01D92A63BB2075A
:1005F000E1F711E0A0E0B1E0ECE3F7E202C0059022
:100600000D92A434B107D9F712E0CBEED2E004C0CA
:100610002197FE010E946012CA3ED107C9F70E94CD
:10062000680E0C949C130C94000080E090E0892BE1
:1006300029F00E94F80A81110C9400000895CF92CD
:10064000DF92EF92FF920F931F93CF93DF93DC0122
:1006500077FD22C118968D919C911997681779079B
:100660000CF01AC157FD18C11A968D919C911B97D9
:10067000481759070CF010C15696EC9156971496EE
:100680008D919C911597E23059F0E330C9F0E1303B
:1006900001F5FC013197E41BF50BAB01BF0119C05B
:1006A000FC013197EF01C61BD70BBE011696ED91E9
:1006B000FC9117973197EF01C41BD50BAE0109C010
:1006C0001696ED91FC9117973197E61BF70BBA013F
:1006D000AF018901012F112702950F70F02EE9015A
:1006E000CC0FCD2FCC1FDD0BD195EC2FEF70EE2E64
:1006F00036952795E22FEF70DE2E5F96EC915F978F
:10070000F0E0017011273C2F317021704E175F0708
:100710000CF06CC09096EC919097ED01CE0FD11D2E
:10072000CE0FD11D489FF001499FF00D589FF00D4D
:100730001124AF01440F551FE40FF51F6E0F7F1FEB
:10074000EB8DFC8DE60FF71F880F991FEF01C80F87
:10075000D91F88818C7F8883012B59F01496CD9105
:10076000DC911597CC0FDD1FCE0FDF1F88818160D4
:100770008883332359F01496CD91DC911597CC0FD3
:10078000DD1FCE0FDF1F8881826088831496CD9194
:10079000DC911597CE0FDF1F8881222331F0816015
:1007A000888323E030E092E01AC08E7FF9CF808307
:1007B0008E2D892319F08081886080838D2D892377
:1007C00019F080818061808314964D915C9115971A
:1007D000E40FF51F990F2150310909F45DC08081A4
:1007E000837E4F2D492319F38460E1CF9096CC90FE
:1007F0009097ED01CC0DD11DCC0DD11D4E1B5F0B83
:10080000489FF001499FF00D589FF00D1124CF0132
:10081000880F991FE80FF91F6E0F7F1FEB8DFC8D5E
:10082000E60FF71F80818C7F80831496CD91DC9139
:100830001597CE0FDF1F8881012B11F0826001C058
:100840008D7F8883332319F0808181608083222308
:1008500019F080818260808323E030E092E0808123
:100860008F714F2D492309F0806280838E2D89235B
:1008700019F08081806480838D2D892319F0808117
:100880008068808314964D915C911597E40FF51F55
:10089000990F2150310919F7DF91CF911F910F91D5
:1008A000FF90EF90DF90CF9008950895FC01637062
:1008B000668B8481958126813781613039F0633080
:1008C00029F0918780873387228708953187208791
:1008D0009387828708956F927F928F929F92AF92B3
:1008E000BF92CF92DF92EF92FF920F931F93CF931D
:1008F000DF93EC014B015A0169013801E881F9816C
:100900000284F385E02D0995E881F9810288F38955
:10091000E02D87019601A501B401CE010995A5013D
:10092000460D571D41505109E881F9810288F3892C
:10093000E02D9601B401CE010995E881F981008886
:10094000F189E02D9301A501B401CE010995C80CF0
:10095000D91CB60161507109E881F9810088F189DB
:10096000E02D9301A501CE010995E881F981068862
:10097000F789E02DCE01DF91CF911F910F91FF906C
:10098000EF90DF90CF90BF90AF909F908F907F902F
:100990006F9009948F929F92AF92BF92CF92DF9205
:1009A000EF92FF920F931F93CF93DF934C016B0154
:1009B0005A01E901DC01ED91FC916217730781F4A2
:1009C0000417150724F48B2D5801042F182F0A192A
:1009D0001B0998012F5F3F4F048CF58DE02D12C04D
:1009E0004017510709F52617370724F48D2D6901A3
:1009F000C62FD82F9E012C193D092F5F3F4F068C23
:100A0000F78DE02D8701A501B601C4010995DF919D
:100A1000CF911F910F91FF90EF90DF90CF90BF90FB
:100A2000AF909F908F9008950284F385E02D0995F3
:100A3000D401ED91FC910488F589E02D9E01A5017A
:100A4000B601C4010995D401ED91FC910688F7899E
:100A5000E02DC401DF91CF911F910F91FF90EF9096
:100A6000DF90CF90BF90AF909F908F900994EF92BE
:100A7000FF920F931F93DC011A960D911C911B9707
:100A800018962D913C911997ED91FC9100A0F1A140
:100A9000E02D7B0140E050E060E070E009951F919F
:100AA0000F91FF90EF9008954F925F926F927F9217
:100AB0008F929F92AF92BF92CF92DF92EF92FF926E
:100AC0000F931F93CF93DF936C012B015A013901D0
:100AD0004801DC01ED91FC910284F385E02D09953C
:100AE000E201640C751CD601ED91FC91C615D70589
:100AF0005CF40088F189E02D87019401A501BE0115
:100B0000C60109952196EFCF0688F789E02DC60129
:100B1000DF91CF911F910F91FF90EF90DF90CF90D9
:100B2000BF90AF909F908F907F906F905F904F900D
:100B300009948F929F92AF92BF92CF92DF92EF92E1
:100B4000FF920F931F93CF93DF93EC015B014A0158
:100B50006901E881F9810284F385E02D0995950109
:100B60002C0D3D1D21503109E881F9810488F5895A
:100B7000E02D78018401A401B501CE010995E88139
:100B8000F9810688F789E02DCE01DF91CF911F9181
:100B90000F91FF90EF90DF90CF90BF90AF909F901C
:100BA0008F9009948F929F92AF92BF92CF92DF92D3
:100BB000EF92FF920F931F93CF93DF93EC015B01B2
:100BC0004A0169017801E881F9810284F385E02D09
:100BD0000995C80CD91C860101501109E881F981D9
:100BE0000488F589E02D9501A401B501CE01099590
:100BF000E881F9810688F789E02DCE01DF91CF9158
:100C00001F910F91FF90EF90DF90CF90BF90AF902A
:100C10009F908F9009940895EF92FF920F931F93E6
:100C2000DC01ED91FC9100A0F1A1E02D09951F914F
:100C30000F91FF90EF9008950F931F93DC01ED91BA
:100C4000FC91068CF78DE02D09951F910F91089569
:100C50000F931F93DC01ED91FC91048CF58DE02D39
:100C600009951F910F910895DC01ED91FC9100848D
:100C7000F185E02D09942F923F924F925F926F92EF
:100C80007F928F929F92AF92BF92CF92DF92EF921C
:100C9000FF920F931F93CF93DF9300D000D000D02B
:100CA000CDB7DEB72C017E836D836A015901C8017F
:100CB000FC82EB824801841A950A97FE03C0919446
:100CC0008194910835012D813E81621A730A77FE65
:100CD00003C0719461947108681479045CF43A2D2E
:100CE0002B2D5C01832F922F3D812E81DE82CD82C0
:100CF000C32ED22EAD81BE81AA16BB065CF43C2D5C
:100D00002D2D6C01832F922F3D812E81BE82AD82CD
:100D1000A32EB22E85012D813E81021B130B1C01D7
:100D20002C183D0837FE03C0319421943108780116
:100D300017FF03C03FEFE31AF30AF594E794C816D0
:100D4000D9062CF08FEF9FEF9A83898304C0A1E02E
:100D5000B0E0BA83A9832D813E81A216B30624F1A7
:100D6000D201ED91FC910484F585E02D2B813C812D
:100D70006814790424F44D815E81B60103C0A60194
:100D80006D817E81C2010995E218F308F7FE06C065
:100D900029813A81C20ED31EE00EF11E8D819E8103
:100DA00001969E838D83D7CF26960FB6F894DEBF2B
:100DB0000FBECDBFDF91CF911F910F91FF90EF90AC
:100DC000DF90CF90BF90AF909F908F907F906F906B
:100DD0005F904F903F902F900895089580E090E0AD
:100DE00008959B01215031092E3F3F4FF0F0DC0167
:100DF00090962C9190975F963C915F971496ED9109
:100E0000FC9115973E9FA0013F9F500D1124FA01C0
:100E1000EE0FFF1F4E0F5F1FFC01E20FF11DE20FEF
:100E2000F11D838D948D0C9495130C9437058F923E
:100E30009F92AF92CF92EF92FF920F931F93CF9317
:100E4000DF93EC01262F898D9A8D009709F042C01F
:100E50006A3059F41D861C862D898E859F8538E061
:100E6000239F800D911D112443C06D3009F4AAC049
:100E70008F898823C9F03C898C859D8546E0349F05
:100E8000800D911D1124488559854817590764F430
:100E90001D861C863D898E859F8548E0349F800D88
:100EA000911D11249F878E87EA88FB8808891989FC
:100EB0004E855F856C857D85AD88CC88CE010E948E
:100EC000EA0B2C898C859D8536E0239F800D911D32
:100ED00011243EC06A3079F41D861C862D89FC01E0
:100EE0003896E4918E859F852E9F800D911D11244B
:100EF0009F878E8767C06D3009F464C0FC0134960B
:100F00003491631708F45EC03296E491E61708F452
:100F100059C0462F431B342FFC0132968590949084
:100F200047E0349F800C911C1124F40132963491D7
:100F30003196E491332311F0E1110DC0F4013496A0
:100F4000E4912C898C859D85E29F800D911D112453
:100F50009D878C8737C0F401359644915F8955236E
:100F600019F15C89E32FF0E0E40FF11D47FDFA95DC
:100F70005E9FB0015F9F700D11244C855D85460F0B
:100F8000571F688579856417750774F41D861C865C
:100F90003D89FC013896E4918E859F853E9F800DAA
:100FA000911D11249F878E87EA88FB8808891989FB
:100FB0004E855F856C857D85AD88CC88CE010E948D
:100FC000EA0BBCCF81E090E0DF91CF911F910F91B0
:100FD000FF90EF90CF90AF909F908F900895FC017D
:100FE000848DDF01A80FB11DA35ABF4F2C91848DB2
:100FF00090E001968F739927848FA689B7892C93E7
:10100000A089B1898C91837080648C93938D848D39
:10101000981306C00288F389E02D80818F7D80833C
:1010200008951F920F920FB60F9211240F931F93E2
:101030002F933F934F935F936F937F938F939F93E0
:10104000AF93BF93CF93DF93EF93FF93A0914401AE
:10105000B0914501D296ED91FC91D39790819B96EA
:101060008C919B97892B8083D096ED91FC91D197A1
:1010700090819A968C919A97892B80835F963C9168
:101080005F97393018F480E991E002C088EC90E075
:10109000DD962C91DD9788589F4F02C0880F991FCD
:1010A0002A95E2F7CC97DD962C91DD972F5FDD96A0
:1010B0002C93DD97243090F1DD961C92DD97DC9621
:1010C0002C91DC972F5FDC962C93DC97231708F488
:1010D0008CC0DC961C92DC9791962C9191972223E0
:1010E00059F090963C91909721E0231B90962C9379
:1010F000909791961C92919790962C919097E1E001
:10110000F0E0E21BF109EE0FFF1FEA0FFB1F238D3A
:10111000348DDF963C932E93DE9767C0DD962C913D
:10112000DD97213009F061C0DC963C91DC97D496C4
:10113000ED91FC91D5979C962C919C9730FF03C024
:101140003081232B03C03081209523232083E3E2C9
:10115000F0E03197F1F7DC963C91DC97D696ED9173
:10116000FC91D7979D962C919D9731FF03C03081BC
:10117000232B03C03081209523232083E3E2F0E07A
:101180003197F1F7DC963C91DC97D896ED91FC9184
:10119000D9979E962C919E9732FF03C03081232BC6
:1011A00003C03081209523232083E3E2F0E03197D0
:1011B000F1F75F962C915F972930B8F0DC963C915F
:1011C000DC97DA96ED91FC91DB979F962C919F9797
:1011D00033FF03C03081232B03C0308120952323AC
:1011E0002083E3E2F0E03197F1F7DE96ED91FC9198
:1011F000DF9790938700809386001092850010926D
:101200008400D296CD91DC91D39798819B968C9156
:101210009B97809589238883D096CD91DC91D19737
:1012200098819A968C919A9780958923888395B115
:1012300099968C919997892BDD962C91DD972111A8
:1012400002C010E00DC101900BB885B995B90190AD
:101250000BB885B995B901900BB885B995B90190CE
:101260000BB885B995B901900BB885B995B90190BE
:101270000BB885B995B901900BB885B995B90190AE
:101280000BB885B995B901900BB885B995B901909E
:101290000BB885B995B901900BB885B995B901908E
:1012A0000BB885B995B901900BB885B995B901907E
:1012B0000BB885B995B901900BB885B995B901906E
:1012C0000BB885B995B901900BB885B995B901905E
:1012D0000BB885B995B901900BB885B995B901904E
:1012E0000BB885B995B901900BB885B995B901903E
:1012F0000BB885B995B901900BB885B995B901902E
:101300000BB885B995B901900BB885B995B901901D
:101310000BB885B995B901900BB885B995B901900D
:101320000BB885B995B901900BB885B995B90190FD
:101330000BB885B995B901900BB885B995B90190ED
:101340000BB885B995B914962D913C911597203419
:10135000310509F080C001900BB885B995B90190AD
:101360000BB885B995B901900BB885B995B90190BD
:101370000BB885B995B901900BB885B995B90190AD
:101380000BB885B995B901900BB885B995B901909D
:101390000BB885B995B901900BB885B995B901908D
:1013A0000BB885B995B901900BB885B995B901907D
:1013B0000BB885B995B901900BB885B995B901906D
:1013C0000BB885B995B901900BB885B995B901905D
:1013D0000BB885B995B901900BB885B995B901904D
:1013E0000BB885B995B901900BB885B995B901903D
:1013F0000BB885B995B901900BB885B995B901902D
:101400000BB885B995B901900BB885B995B901901C
:101410000BB885B995B901900BB885B995B901900C
:101420000BB885B995B901900BB885B995B90190FC
:101430000BB885B995B901900BB885B995B90190EC
:101440000BB885B995B901900BB885B995B90190DC
:101450000BB885B995B9DF96FC93EE93DE9730C053
:10146000412F50E014962D913C9115974217530748
:101470003CF5BA01620F731F2E0F3F1FE901C60F23
:10148000D71F2881C4E02C9F90011124022F0C70DB
:101490006E0F7F1FEB013881D0E13D9F9001112439
:1014A0002073202BEF01C40FD51F488130E4439FE8
:1014B000A0011124242B2BB985B995B91F5FD0CF7A
:1014C00086B386BBFF91EF91DF91CF91BF91AF9132
:1014D0009F918F917F916F915F914F913F912F914C
:1014E0001F910F910F900FBE0F901F9018958E3087
:1014F000910588F4FC01EC5CFF4F0C94601289E2CA
:1015000091E0089580E492E2089580E49AE40895D9
:1015100080E299E4089580E098E4089589E090E2FB
:101520000895CF92DF92EF92FF920F931F93CF9384
:10153000DF936C017A018B01C0E0D0E0CE15DF05AE
:1015400081F0D8016D918D01D601ED91FC91019052
:10155000F081E02DC6010995892B11F02196EECF7F
:101560007E01C701DF91CF911F910F91FF90EF9006
:10157000DF90CF900895FC01538D448D252F30E0EE
:10158000842F90E0821B930B541710F0CF96089590
:1015900001970895FC01918D828D981761F0828DDD
:1015A000DF01A80FB11D5D968C91928D9F5F9F7397
:1015B000928F90E008958FEF9FEF0895FC01918D39
:1015C000828D981731F0828DE80FF11D858D90E0A6
:1015D00008958FEF9FEF0895FC01918D228D892F43
:1015E00090E0805C9F4F821B91098F73992708952B
:1015F00080ED91E00E94EC0A21E0892B09F420E0C3
:10160000822F08950E948713EF92FF920F931F93EA
:10161000CF93DF93EC0181E0888F9B8D8C8D9813A5
:1016200005C0E889F989808185FD26C0F62E0B8DDD
:1016300010E00F5F1F4F0F731127E02E8C8DE81203
:101640000CC00FB607FCFACFE889F989808185FFC5
:10165000F5CFCE010E94EF07F1CF8B8DFE01E80F91
:10166000F11DE35AFF4FF0829FB7F8940B8FEA8980
:10167000FB89808180620AC09FB7F894EE89FF8958
:101680006083E889F98980818370806480839FBF4B
:1016900081E090E0DF91CF911F910F91FF90EF904B
:1016A0000895CF93DF93EC01888D8823C9F0EA89F0
:1016B000FB89808185FD05C0A889B9898C9186FD4B
:1016C0000FC00FB607FCF5CF808185FFF2CFA88948
:1016D000B9898C9185FFEDCFCE010E94EF07E7CF4E
:1016E000DF91CF9108951F920F920FB60F921124A0
:1016F0002F933F934F935F936F937F938F939F931A
:10170000AF93BF93EF93FF9380ED91E00E94EF07BB
:10171000FF91EF91BF91AF919F918F917F916F91C9
:101720005F914F913F912F910F900FBE0F901F909F
:1017300018951F920F920FB60F9211242F938F932B
:101740009F93EF93FF93E091E001F091E10180819D
:10175000E091E601F091E70182FD12C09081809155
:10176000E9018F5F8F732091EA01821751F0E091B8
:10177000E901F0E0E053FE4F958F8093E90101C04D
:101780008081FF91EF919F918F912F910F900FBECC
:101790000F901F90189590E0FC01E054FA4F2491AF
:1017A000FC01E455FA4F8491882399F090E0880F6A
:1017B000991FFC01E856FA4FA591B491FC01EE5532
:1017C000FA4F859194918FB7F894EC91E22BEC93BA
:1017D0008FBF08952F923F924F925F926F927F92A8
:1017E0008F929F92AF92BF92CF92DF92EF92FF9231
:1017F0000F931F93CF93DF93CDB7DEB76B970FB6E1
:10180000F894DEBF0FBECDBF9B8F8A8F1B014A01AC
:10181000D22E198708873701A982DC0159962D91AC
:101820003C915A972115310509F0FFC018968D910A
:101830009C911997681779070CF0E7C11A968D915A
:101840009C911B97481759070CF0DFC1EC2DF0E075
:10185000FB83EA839B0146E0C49E200D311D1124C9
:101860003D872C87121613060CF0CFC16A2D70E04D
:101870007B876A8783E0660F771F8A95E1F77F870A
:101880006E87CB01880D991D181619060CF0BDC185
:1018900058968C91811104C08FEA8D1508F4D39469
:1018A000AA8DBB8DED91FC9111970284F385E02DFB
:1018B000CD010995B5E0DB9EC0011124EC2DF0E0CF
:1018C000F98BE88B91012B5F3F4F3B8B2A8B3D823D
:1018D0002C822101AC01421953095D8B4C8B79811B
:1018E000672F70E07F8B6E8BC4010896998F888F6D
:1018F000EC89FD89E40DF51DE856FF4FD4905401A5
:101900009F828E82D0FE16C0AA8DBB8DED91FC9178
:10191000B1E0CB1209C02981213031F40484F5856E
:10192000E02D2885398519C00684F785E02DE884E7
:10193000F9841DC0488559854615570519F1AA8DAA
:10194000BB8DED91FC91B1E0CB120DC0298121300E
:1019500051F40484F585E02D9301A501B2018A8D2F
:101960009B8D09950FC00684F785E02D73010A85CC
:101970001B852A813B814E815F816C817D818A8DAF
:101980009B8D0995D6943FEFA31AB30A4E815F81D0
:101990006E897F89460F571F5F834E83888D998D8F
:1019A000A816B90609F0AECF9FEF491A590AAC81C3
:1019B000BD81E889F989AE0FBF1FBD83AC832A8939
:1019C0003B894216530609F093CF48855985461541
:1019D000570509F4F8C0AA8DBB8DED91FC91B1E0DB
:1019E000CB1211C02981213071F4B1016B5F7F4F9F
:1019F0000088F189E02D830128E030E0A4018A8D80
:101A00009B8D0995E0C06C857D854A815B81641B57
:101A1000750B0684F785E02D73010E851F859A01ED
:101A2000A4018A8D9B8D0995CEC0F9013496E4916D
:101A3000DE1AF901329685919491B7E0DB9E800D14
:101A4000911D1124F901259134913B8B2A8BFC01C6
:101A5000259134915901FC0132965490319634917C
:101A60003C87329674903196149141E04C1518F0F1
:101A70005981523068F0672D072C000C770B7D835D
:101A80006C83812F012E000C990B9B838A8304C0E9
:101A90001B821A821D821C82AA8DBB8DED91FC9146
:101AA00011970284F385E02DCD010995412CD12CAD
:101AB000612CF981EF2FF0E0FF83EE832C2D30E0D5
:101AC0003B872A87A401410F511D17FD5A955F8B53
:101AD0004E8BB101670D711D77FC7A95798F688FF8
:101AE0007C85671608F06FC0262D30E04A815B8147
:101AF000420F531FAE81BF81A49FC001A59F900DCF
:101B0000B49F900D1124F401E80FF91FF98BE88BB5
:101B1000842D712C4E895F89420F531F5D8B4C8B36
:101B2000751408F04DC051E0580F5E87877041F47E
:101B3000C5010196EA89FB89EA0DFB1DD4905C0181
:101B4000D7FE3AC061E0C61216C07981713099F4AF
:101B5000AA8DBB8DED91FC9111970484F585E02D44
:101B6000288539854C895D89688D798D670D711D52
:101B7000CD01099521C08C819D81870D911DEA853C
:101B8000FB858E9FB0018F9F700D9E9F700D11245D
:101B9000620D731DAA8DBB8DED91FC91119706848A
:101BA000F785E02DE884F9840E811F812A853B8525
:101BB00048895989CD010995DD0C73948E85B0CF84
:101BC000450C63948DCFAA8DBB8DED91FC9111973F
:101BD0000688F789E02DCD016B960FB6F894DEBF2D
:101BE0000FBECDBFDF91CF911F910F91FF90EF906E
:101BF000DF90CF90BF90AF909F908F907F906F902D
:101C00005F904F903F902F9009946B960FB6F89489
:101C1000DEBF0FBECDBFDF91CF911F910F91FF901F
:101C2000EF90DF90CF90BF90AF909F908F907F907C
:101C30006F905F904F903F902F9008951F920F925A
:101C40000FB60F9211242F933F938F939F93AF93CF
:101C5000BF938091CC019091CD01A091CE01B09124
:101C6000CF013091B10223E0230F2D3720F40196EC
:101C7000A11DB11D05C026E8230F0296A11DB11DAF
:101C80002093B1028093CC019093CD01A093CE011B
:101C9000B093CF018091AD029091AE02A091AF02BE
:101CA000B091B0020196A11DB11D8093AD02909339
:101CB000AE02A093AF02B093B002BF91AF919F91DB
:101CC0008F913F912F910F900FBE0F901F901895FD
:101CD000CF93DF93CDB7DEB7C454D1090FB6F894D4
:101CE000DEBF0FBECDBF789484B5826084BD84B55D
:101CF000816084BD85B5826085BD85B5816085BD07
:101D000080916E00816080936E00109281008091BE
:101D10008100826080938100809181008160809346
:101D20008100809180008160809380008091B1006B
:101D300084608093B1008091B00081608093B00096
:101D400080917A00846080937A0080917A0082602A
:101D500080937A0080917A00816080937A008091EC
:101D60007A00806880937A001092C100E091E001CF
:101D7000F091E10182E08083E091DC01F091DD01EE
:101D80001082E091DE01F091DF018FEC80831092F0
:101D9000E801E091E401F091E50186E08083E091C3
:101DA000E201F091E301808180618083E091E201B2
:101DB000F091E301808188608083E091E201F091FD
:101DC000E301808180688083E091E201F091E3018A
:101DD00080818F7D808384E090E0A0E0B0E08093FC
:101DE000D4019093D501A093D601B093D70110925E
:101DF0008D0280918D02E1E0F0E0E81BF109EE0F29
:101E0000FF1FE359FD4F838D948D9093AC02809317
:101E1000AB028DE692E0909345018093440180915E
:101E20008F020E94CB0B80918F0290E0FC01EC5757
:101E3000FF4F2491FC01E054FA4F3491FC01E4552A
:101E4000FA4FE491EE23B9F1222339F1233091F0D6
:101E500038F42130A9F0223001F584B58F7D12C00D
:101E6000273091F02830A1F02430B9F4809180001F
:101E70008F7D03C0809180008F77809380000DC09C
:101E800084B58F7784BD09C08091B0008F7703C07F
:101E90008091B0008F7D8093B000F0E0EE0FFF1FC7
:101EA000EE55FA4FA591B4919FB7F8948C91309567
:101EB00038233C939FBF809190020E94CB0BE0910E
:101EC0009D02F0919E0290818091970280958923D6
:101ED0008083809191020E94CB0BE0919F02F09150
:101EE000A002908180919802892B80838091920238
:101EF0000E94CB0BE091A102F091A202908180910F
:101F00009902809589238083809193020E94CB0B54
:101F1000E091A302F091A402908180919A028095B1
:101F200089238083809194020E94CB0BE091A502CB
:101F3000F091A602908180919B02809589238083F5
:101F400080918C02893070F0809195020E94CB0BB9
:101F5000E091A702F091A802908180919C02809567
:101F6000892380838CEF8AB91BB882E0809380003C
:101F700089E18093810084E690E0909387008093CC
:101F8000860080916F00816080936F0078948DE06F
:101F90000E94CB0BEAE8F1E01182108213821282D8
:101FA000349781E0EA34F807B9F700E1C02ED12C6C
:101FB00084E0A82EB12C0CE811E0E12CF12C2FB715
:101FC000F8948091CC019091CD01A091CE01B09177
:101FD000CF012FBF8093D8019093D901A093DA014C
:101FE000B093DB0180ED91E00E94CA0A97FF25C003
:101FF0002FB7F8948091CC019091CD01A091CE01A2
:10200000B091CF012FBF4091D8015091D90160917B
:10201000DA017091DB01841B950BA60BB70B409185
:10202000D4015091D5016091D6017091D7018417E8
:102030009507A607B707B0F204C08D30910509F0E7
:1020400006C1EF2809F400C110918C011983E090BA
:102050008D010E2C000CFF08FB82EA82A7016EE8BE
:1020600071E0CE0104960E948C13103109F0FBC080
:10207000E0E1EE16F10409F0F6C010928B01109227
:102080008A01DE011496EAE4F1E040E050E04031DC
:10209000510529F450938B0140938A0135C08D91ED
:1020A000082E000C990B208131818217930774F45C
:1020B000828193811816190624F4019793838283F1
:1020C0000CC0215031093183208307C028173907FC
:1020D00024F491838083B382A2824F5F5F4F349652
:1020E000D6CF22813381121613060CF0C1C02150C5
:1020F000310933832283019634968031910589F723
:1021000090938B0180938A012FB7F8948091CC0132
:102110009091CD01A091CE01B091CF012FBF409100
:10212000460150914701609148017091490148175B
:1021300059076A077B0708F087C00496A11DB11DE7
:102140008093460190934701A0934801B0934901C1
:1021500010928B0110928A0160918A0170918B011B
:10216000603171050CF070C0FB01EE0FFF1FEE0F28
:10217000FF1FE65BFE4F408151819601241B350B0A
:10218000660F771F00E010E08DE692E00E942806BF
:1021900060918A0170918B01FB01EE0FFF1FEE0F22
:1021A000FF1FE65BFE4F408151819601241B350BDA
:1021B000660F771F6F5F7F4F8DE692E00E942806C3
:1021C000E0908A01F0908B01F701EE0FFF1FEE0FF8
:1021D000FF1FE65BFE4F808091808114910451F1D6
:1021E000C7010E94770AB701660F771F8C0194011F
:1021F00040E050E08DE692E00E942806E0908A01DF
:10220000F0908B01C7010E94770AF701EE0FFF1FC4
:10221000EE0FFF1FE65BFE4F20813181B701660F95
:10222000771F6F5F7F4F8C0140E050E08DE692E0BA
:102230000E94280680918A0190918B0101969093CB
:102240008B0180938A0188CF0E941503B4CEF801D8
:1022500081938F01FFEFEF1AFF0A80E4E816F10483
:1022600009F0ADCEF1CEEAE4F1E080E090E045CFB8
:1022700020813181121613060CF03DCF2150310917
:102280003183208338CFCF931092D3011092D201A3
:1022900088EE93E0A0E0B0E08093D4019093D50164
:1022A000A093D601B093D7018AE091E09093D10139
:1022B0008093D00185EC90E09093DD018093DC0168
:1022C00084EC90E09093DF018093DE0180EC90E05D
:1022D0009093E1018093E00181EC90E09093E30121
:1022E0008093E20182EC90E09093E5018093E40119
:1022F00086EC90E09093E7018093E6011092E9016B
:102300001092EA011092EB011092EC01109270020F
:1023100010926F0220E230E030937202209371023B
:1023200080E190E090937402809373023093760280
:102330002093750290937802809377021092830223
:1023400010927A021092790210927C0210927B0213
:1023500081E080938202809381022FEF3FEF3093E0
:10236000800220937F0230937E0220937D0280932F
:1023700084021092850210928702109286028CE1EC
:1023800091E090936E0280936D02C8E0C0938C023E
:1023900080E093E00E946612909389028093880205
:1023A000009709F48BC020E033E0FC01A9011192F1
:1023B00041505040E1F790938B0280938A028EE067
:1023C000809392028FE08093930280E18093940245
:1023D000C0938F028AE08093900289E080939102FB
:1023E000E8ECF5E0E491E0939602E6EBF5E0E491A9
:1023F000F0E0EE0FFF1FEE55FA4F85919491909308
:102400009E0280939D02EAECF5E0E491E09397024E
:10241000E5EBF5E0E491F0E0EE0FFF1FEE55FA4F2B
:10242000859194919093A00280939F02E9ECF5E04E
:10243000E491E0939802EAEBF5E0E491F0E0EE0F2E
:10244000FF1FEE55FA4F859194919093A2028093CD
:10245000A102EEECF5E0E491E0939902EBEBF5E0FC
:10246000E491F0E0EE0FFF1FEE55FA4F8591949145
:102470009093A4028093A302EFECF5E0E491E09343
:102480009A02ECEBF5E0E491F0E0EE0FFF1FEE5561
:10249000FA4F859194919093A6028093A502E0ED66
:1024A000F5E0E491E0939B0283E08093AA0287E049
:1024B0008093A90210928E0210928D02CF910895FE
:1024C000EE0FFF1F0590F491E02D09940F931F93D9
:1024D000CF93DF938230910510F482E090E0E09199
:1024E000B402F091B50220E030E0A0E0B0E0309717
:1024F00019F1408151810281138148175907C8F0B1
:102500008417950769F4109731F012960C9312977F
:1025100013961C9327C00093B4021093B50222C0F7
:102520002115310519F04217530718F49A01BD011E
:10253000EF01DF01F801DBCF21153105F9F0281B90
:10254000390B2430310580F48A819B816115710536
:1025500021F0FB019383828304C09093B5028093A2
:10256000B402FE01329644C0FE01E20FF31F8193D4
:10257000919322503109398328833AC02091B202C5
:102580003091B302232B41F42091020130910301D9
:102590003093B3022093B2022091000130910101E7
:1025A0002115310541F42DB73EB7409104015091FA
:1025B0000501241B350BE091B202F091B302E21742
:1025C000F307A0F42E1B3F0B2817390778F0AC0156
:1025D0004E5F5F4F2417350748F04E0F5F1F509333
:1025E000B3024093B2028193919302C0E0E0F0E025
:1025F000CF01DF91CF911F910F910895CF93DF937A
:10260000009709F481C0FC01329713821282A091D5
:10261000B402B091B502109781F420813181820F0C
:10262000931F2091B2023091B3022817390751F558
:10263000F093B302E093B20267C0ED0120E030E016
:10264000CE17DF0740F44A815B819E014115510599
:10265000F1F0EA01F5CFD383C28340815181840F29
:10266000951FC817D90759F488819981840F951F40
:102670000296918380838A819B8193838283211533
:10268000310529F4F093B502E093B4023DC0E901AD
:10269000FB83EA8349915991C40FD51FEC17FD07BD
:1026A00061F480819181840F951F0296E9019983DD
:1026B0008883828193819B838A83E0E0F0E0129695
:1026C0008D919C911397009719F0FD01DC01F7CFD4
:1026D0008D919C9111979D012E5F3F4F820F931F0B
:1026E0002091B2023091B3022817390769F430976C
:1026F00029F41092B5021092B40202C01382128221
:10270000B093B302A093B202DF91CF91089581E01C
:1027100090E0F8940C949C13FB01DC0102C0019042
:102720000D9241505040D8F70895DC0101C06D93DF
:0C27300041505040E0F70895F894FFCFAE
:10273C000000B602200000000000040B910ABB0A46
:10274C00510BEC0ACA0ADE0A000000001707910AB6
:10275C00EE06ED061F030B0634060C0628061C06B7
:10276C003B060B0656045504D20599055405F10693
:04277C00CA046B041C
:00000001FF
